:100000000C9462000C948A000C948A000C948A0070
:100010000C948A000C948A000C948A000C948A0038
:100020000C948A000C948A000C948A000C948A0028
:100030000C948A000C948A000C948A000C948A0018
:100040000C9419010C948A000C9440020C948A00C0
:100050000C948A000C948A000C948A000C948A00F8
:100060000C948A000C948A000000000024002700F1
:100070002A0000000000250028002B0000000000DE
:1000800023002600290004040404040404040202DA
:100090000202020203030303030301020408102007
:1000A0004080010204081020010204081020000012
:1000B0000007000201000003040600000000000029
:1000C0000000890311241FBECFEFD4E0DEBFCDBFF7
:1000D00011E0A0E0B1E0E2EBFAE002C005900D9281
:1000E000A231B107D9F711E0A2E1B1E001C01D9240
:1000F000A83BB107E1F710E0C4ECD0E004C02297C0
:10010000FE010E945305C23CD107C9F70E941001AD
:100110000C9457050C9400009093B7018093B6019E
:1001200008950F931F938C01E0910201F091030158
:1001300009959C018017910799F06091B601709123
:10014000B701882777FD8095982FE0910001F09105
:1001500001010995E0910201F091030109959C01CB
:10016000C9011F910F9108950E946D01089585E0C6
:100170000E94F10120E030E0892B11F421E030E011
:10018000C901089580911401909115010E94910078
:100190009C0190931301809312018091140190911E
:1001A0001501892B49F4232B99F083EA91E041E072
:1001B00050E060E070E008C0232B51F483EA91E046
:1001C00042E050E060E070E02AE030E00E94B904D4
:1001D0008091120190911301909315018093140165
:1001E000D1CF8091060160E00E94D101809104018D
:1001F00061E00E94D10182E090E00E948C00809139
:10020000120190911301909315018093140183EAD8
:1002100091E040E056E960E070E00E947D020895C0
:100220000E9497010E94F1000E94C20080E090E0CD
:1002300008951F920F920FB60F9211242F933F93A0
:100240004F935F936F937F938F939F93AF93BF93DE
:1002500020911A0130911B0140911C0150911D0108
:1002600070911E01DA01C9010296A11DB11D672F0F
:10027000665D6D3730F06D57DA01C9010396A11D37
:10028000B11D60931E0180931A0190931B01A093EE
:100290001C01B0931D018091160190911701A0914E
:1002A0001801B09119010196A11DB11D809316018D
:1002B00090931701A0931801B0931901BF91AF91CA
:1002C0009F918F917F916F915F914F913F912F916E
:1002D0000F900FBE0F901F901895EF92FF920F9303
:1002E0001F937B018C018FB7F89440911A015091B4
:1002F0001B0160911C0170911D018FBF2FB7F894F5
:1003000080911A0190911B01A0911C01B0911D01D7
:100310002FBF841B950BA60BB70BE816F9060A072F
:100320001B0760F71F910F91FF90EF90089578944D
:1003300084B5826084BD84B5816084BD85B58260EA
:1003400085BD85B5816085BDEEE6F0E08081816088
:100350008083E1E8F0E08081826080838081816039
:100360008083E0E8F0E0808181608083E1EBF0E071
:10037000808184608083E0EBF0E080818160808315
:10038000EAE7F0E0808184608083808182608083FE
:100390008081816080838081806880831092C10029
:1003A0000895282F30E0C90186569F4FFC01949193
:1003B0002A573F4FF9018491882391F0E82FF0E00C
:1003C000EE0FFF1FE859FF4FA591B491662329F462
:1003D0008C91909589238C9308958C91892B8C9383
:1003E0000895682F70E0CB0182559F4FFC01249146
:1003F000CB0186569F4FFC0144916A577F4FFB010A
:100400009491992319F420E030E038C0222331F18F
:10041000233021F4809180008F7705C0243031F49F
:10042000809180008F7D8093800018C0213019F466
:1004300084B58F7704C0223021F484B58F7D84BDCC
:100440000DC0263021F48091B0008F7705C0273091
:1004500029F48091B0008F7D8093B000892F90E0C7
:10046000880F991F84589F4FFC01A591B4918C91DE
:1004700020E030E0842311F021E030E0C90108954C
:100480001F920F920FB60F9211242F933F934F9309
:100490005F936F937F938F939F93AF93BF93EF93EC
:1004A000FF934091C600E0919F01F091A001CF0120
:1004B000019660E870E00E94ED049C018091A1012A
:1004C0009091A2012817390739F0E15EFE4F408371
:1004D0003093A00120939F01FF91EF91BF91AF91C5
:1004E0009F918F917F916F915F914F913F912F914C
:1004F0000F900FBE0F901F9018955F926F927F9292
:100500008F929F92AF92BF92CF92DF92EF92FF9223
:100510000F931F93CF93DF93EC013A014B014130CE
:1005200088E0580787E0680780E078070CF07FC014
:1005300060E070E18EE090E0A40193010E9422054A
:100540002150304040405040CA01B90122E030E023
:1005500040E050E00E94220559016A01A601950180
:10056000209530954095509594E0220F331F441FFD
:10057000551F9A95D1F760E070E880E790E00E94FF
:100580002205CA01B9012FEF30E040E050E00E949F
:10059000CE04A40193010E942205C90181509F4FFE
:1005A000181619061CF4522E5A9403C0552453945D
:1005B000521A60E070E28CE190E0A40193010E9485
:1005C00022052150304040405040CA01B90122E08C
:1005D00030E040E050E00E942205209530954095A3
:1005E000509583E0220F331F441F551F8A95D1F782
:1005F00060E070E880E790E00E942205CA01B9013E
:100600002FEF30E040E050E00E94CE04A4019301BF
:100610000E942205C90181509F4F181619061CF42B
:10062000822F815002C081E0821B851500F5E8858C
:10063000F98581E090E00A8802C0880F991F0A942A
:10064000E2F7808360E070E28CE190E0A401930126
:100650000E9422052150304040405040CA01B9015B
:1006600022E030E040E050E00E94220504C0E8852E
:10067000F98510829501EC81FD813083EE81FF8147
:100680002083EA85FB85208141E050E0CA010E8489
:1006900002C0880F991F0A94E2F7282B2083EA856D
:1006A000FB852081CA010F8402C0880F991F0A941C
:1006B000E2F7282B2083EA85FB858081088802C029
:1006C000440F551F0A94E2F7842B8083DF91CF916A
:1006D0001F910F91FF90EF90DF90CF90BF90AF9060
:1006E0009F908F907F906F905F900895FC01A08500
:1006F000B18521898C9190E0022E02C09595879555
:100700000A94E2F780FFF6CF0484F585E02D60833C
:1007100008958CE091E09093A4018093A3018FE170
:1007200091E09093A6018093A50185EC90E09093D1
:10073000A8018093A70184EC90E09093AA01809394
:10074000A90180EC90E09093AC018093AB0181EC27
:1007500090E09093AE018093AD0186EC90E0909391
:10076000B0018093AF0184E08093B10183E0809376
:10077000B20187E08093B30185E08093B40181E00A
:100780008093B50108950F931F93CF93DF938C014E
:10079000EB0109C02196D801ED91FC910190F08107
:1007A000E02DC801099568816623A1F7DF91CF91FB
:1007B0001F910F910895EF92FF920F931F93CF9384
:1007C000DF938C017B01EA010CC0D7016D917D01A3
:1007D000D801ED91FC910190F081E02DC8010995BF
:1007E0002197209791F7DF91CF911F910F91FF9063
:1007F000EF9008952F923F924F925F926F927F9267
:100800008F929F92AF92BF92CF92DF92EF92FF9220
:100810000F931F93DF93CF93CDB7DEB7A0970FB69B
:10082000F894DEBF0FBECDBF1C016A017B014115EC
:1008300051056105710549F4DC01ED91FC910190D0
:10084000F081E02D60E3099554C088249924540177
:10085000422E55246624772401E010E00C0F1D1F62
:10086000080D191DC701B601A30192010E940005E0
:10087000F80160830894811C911CA11CB11CC70164
:10088000B601A30192010E940005C901DA016C01C1
:100890007D01C114D104E104F104F1F681E0E82EF8
:1008A000F12CEC0EFD1EE80CF91C3E010894611CB5
:1008B000711CD501C4010197A109B1096C01C818C7
:1008C000D90814C0F601EE0DFF1D60816A3010F4E6
:1008D000605D01C0695CD101ED91FC910190F081F6
:1008E000E02DC10109950894E108F1086E147F0418
:1008F00049F7A0960FB6F894DEBF0FBECDBFCF91DB
:10090000DF911F910F91FF90EF90DF90CF90BF90FC
:10091000AF909F908F907F906F905F904F903F909F
:100920002F900895EF92FF920F931F93CF93DF9331
:10093000EC017A018B0177FF0FC0E881F98101900A
:10094000F081E02D6DE2099510950095F094E0940A
:10095000E11CF11C011D111DCE01B801A7012AE007
:100960000E94FA03DF91CF911F910F91FF90EF90BA
:100970000895DC012115310541F4ED91FC910190C0
:10098000F081E02D642F099508952A30310519F47E
:100990000E94920408950E94FA030895629FD00174
:1009A000739FF001829FE00DF11D649FE00DF11D2A
:1009B000929FF00D839FF00D749FF00D659FF00DD9
:1009C0009927729FB00DE11DF91F639FB00DE11DC6
:1009D000F91FBD01CF011124089597FB092E0726A9
:1009E0000AD077FD04D049D006D000201AF47095C3
:1009F00061957F4F0895F6F7909581959F4F0895E3
:100A0000A1E21A2EAA1BBB1BFD010DC0AA1FBB1F12
:100A1000EE1FFF1FA217B307E407F50720F0A21B84
:100A2000B30BE40BF50B661F771F881F991F1A94F1
:100A300069F760957095809590959B01AC01BD011B
:100A4000CF01089597FB092E05260ED057FD04D03F
:100A5000D7DF0AD0001C38F4509540953095219589
:100A60003F4F4F4F5F4F0895F6F7909580957095E3
:100A700061957F4F8F4F9F4F0895AA1BBB1B51E17C
:100A800007C0AA1FBB1FA617B70710F0A61BB70BFE
:100A9000881F991F5A95A9F780959095BC01CD01A3
:100AA0000895EE0FFF1F0590F491E02D0994F8943E
:020AB000FFCF76
:100AB200B400B7000D000500000000007603C30378
:020AC200DB0354
:00000001FF
