:100000000C9462000C948A000C948A000C948A0070
:100010000C948A000C948A000C948A000C948A0038
:100020000C948A000C948A000C948A000C948A0028
:100030000C948A000C948A000C948A000C948A0018
:100040000C943A010C948A000C9484020C948A005B
:100050000C948A000C948A000C948A000C948A00F8
:100060000C948A000C948A000000000024002700F1
:100070002A0000000000250028002B0000000000DE
:1000800023002600290004040404040404040202DA
:100090000202020203030303030301020408102007
:1000A0004080010204081020010204081020000012
:1000B0000007000201000003040600000000000029
:1000C0000000CD0311241FBECFEFD4E0DEBFCDBFB3
:1000D00011E0A0E0B1E0EAE3FBE002C005900D9280
:1000E000AC30B107D9F711E0ACE0B1E001C01D922E
:1000F000AB3BB107E1F710E0C4ECD0E004C02297BD
:10010000FE010E949705C23CD107C9F70E94A200D8
:100110000C949B050C94000085E060E00E94C801EF
:100120008091000161E00E94C80186EA91E040E808
:1001300055E260E070E00E94C10284E690E00E9417
:10014000CD0008950E948E010E948C0080910001D4
:1001500061E00E94E80185E00E94350280930C0175
:10016000882319F481E090E002C080E090E00E94D2
:1001700012010E94190190930E0180930D010097C6
:1001800029F3AC01662757FD6095762F86EA91E04A
:100190002AE030E00E94FD04D9CF9093BA01809309
:1001A000B9011092100110920F01109216011092D5
:1001B000150108959C01009759F46115710541F0EE
:1001C0004F5F5F4FCB010196BA010E9431059C0140
:1001D000C901089560911501709116014091B9010E
:1001E0005091BA0180911101909112010E94DA00A0
:1001F000909316018093150120910F013091100109
:1002000030931401209313011092100110920F01EA
:100210001816190634F481E090E090931001809351
:100220000F01089590931201809311010E94EA003A
:100230000895809113019091140120910F01309144
:100240001001892B29F4232B61F081E090E004C098
:10025000232B39F482E090E09093180180931701EA
:1002600004C010921801109217018091170190910B
:10027000180108951F920F920FB60F9211242F9319
:100280003F934F935F936F937F938F939F93AF931E
:10029000BF9320911D0130911E0140911F0150918B
:1002A000200170912101DA01C9010296A11DB11D41
:1002B000672F665D6D3730F06D57DA01C90103961F
:1002C000A11DB11D6093210180931D0190931E011A
:1002D000A0931F01B09320018091190190911A0100
:1002E000A0911B01B0911C010196A11DB11D80932D
:1002F000190190931A01A0931B01B0931C01BF91A7
:10030000AF919F918F917F916F915F914F913F91AD
:100310002F910F900FBE0F901F901895789484B571
:10032000826084BD84B5816084BD85B5826085BDF1
:1003300085B5816085BDEEE6F0E0808181608083D7
:10034000E1E8F0E080818260808380818160808349
:10035000E0E8F0E0808181608083E1EBF0E0808183
:1003600084608083E0EBF0E0808181608083EAE755
:10037000F0E08081846080838081826080838081DE
:10038000816080838081806880831092C10008959D
:10039000282F30E0C90186569F4FFC0194912A57BF
:1003A0003F4FF9018491882391F0E82FF0E0EE0FA0
:1003B000FF1FE859FF4FA591B491662329F48C9152
:1003C000909589238C9308958C91892B8C93089513
:1003D000482F50E0CA0182559F4FFC012491CA0169
:1003E00086569F4FFC0194914A575F4FFA01349112
:1003F0003323D1F1222331F1233021F48091800085
:100400008F7705C0243031F4809180008F7D8093F8
:10041000800018C0213019F484B58F7704C02230D1
:1004200021F484B58F7D84BD0DC0263021F48091E8
:10043000B0008F7705C0273029F48091B0008F7D00
:100440008093B000E32FF0E0EE0FFF1FEE58FF4F58
:10045000A591B491662329F48C91909589238C936E
:1004600008958C91892B8C930895682F70E0CB01AF
:1004700082559F4FFC012491CB0186569F4FFC0172
:1004800044916A577F4FFB019491992319F420E01E
:1004900030E038C0222331F1233021F480918000F4
:1004A0008F7705C0243031F4809180008F7D809358
:1004B000800018C0213019F484B58F7704C0223031
:1004C00021F484B58F7D84BD0DC0263021F4809148
:1004D000B0008F7705C0273029F48091B0008F7D60
:1004E0008093B000892F90E0880F991F84589F4F08
:1004F000FC01A591B4918C9120E030E0842311F0AF
:1005000021E030E0C90108951F920F920FB60F92BB
:1005100011242F933F934F935F936F937F938F9308
:100520009F93AF93BF93EF93FF934091C600E091E9
:10053000A201F091A301CF01019660E870E00E9452
:1005400031059C018091A4019091A50128173907DC
:1005500039F0EE5DFE4F40833093A3012093A2015A
:10056000FF91EF91BF91AF919F918F917F916F918B
:100570005F914F913F912F910F900FBE0F901F9061
:1005800018955F926F927F928F929F92AF92BF92D7
:10059000CF92DF92EF92FF920F931F93CF93DF934F
:1005A000EC013A014B01413088E0580787E06807C9
:1005B00080E078070CF07FC060E070E18EE090E0B2
:1005C000A40193010E9466052150304040405040F4
:1005D000CA01B90122E030E040E050E00E94660527
:1005E00059016A01A60195012095309540955095D5
:1005F00094E0220F331F441F551F9A95D1F760E0F6
:1006000070E880E790E00E946605CA01B9012FEF0B
:1006100030E040E050E00E941205A40193010E94E6
:100620006605C90181509F4F181619061CF4522EF9
:100630005A9403C055245394521A60E070E28CE13E
:1006400090E0A40193010E94660521503040404093
:100650005040CA01B90122E030E040E050E00E9481
:100660006605209530954095509583E0220F331F05
:10067000441F551F8A95D1F760E070E880E790E04D
:100680000E946605CA01B9012FEF30E040E050E05A
:100690000E941205A40193010E946605C9018150C0
:1006A0009F4F181619061CF4822F815002C081E05A
:1006B000821B851500F5E885F98581E090E00A88C0
:1006C00002C0880F991F0A94E2F7808360E070E20D
:1006D0008CE190E0A40193010E9466052150304016
:1006E00040405040CA01B90122E030E040E050E013
:1006F0000E94660504C0E885F98510829501EC81A9
:10070000FD813083EE81FF812083EA85FB85208196
:1007100041E050E0CA010E8402C0880F991F0A947C
:10072000E2F7282B2083EA85FB852081CA010F840C
:1007300002C0880F991F0A94E2F7282B2083EA85CC
:10074000FB858081088802C0440F551F0A94E2F798
:10075000842B8083DF91CF911F910F91FF90EF90B9
:10076000DF90CF90BF90AF909F908F907F906F90D1
:100770005F900895FC01A085B18521898C9190E05E
:10078000022E02C0959587950A94E2F780FFF6CF76
:100790000484F585E02D6083089586E091E09093D0
:1007A000A7018093A60182E291E09093A901809332
:1007B000A80185EC90E09093AB018093AA0184ECB2
:1007C00090E09093AD018093AC0180EC90E0909329
:1007D000AF018093AE0181EC90E09093B1018093E2
:1007E000B00186EC90E09093B3018093B20184E075
:1007F0008093B40183E08093B50187E08093B601D4
:1008000085E08093B70181E08093B80108950F934C
:100810001F93CF93DF938C01EB0109C02196D80180
:10082000ED91FC910190F081E02DC801099568815E
:100830006623A1F7DF91CF911F910F910895EF9259
:10084000FF920F931F93CF93DF938C017B01EA01FB
:100850000CC0D7016D917D01D801ED91FC91019003
:10086000F081E02DC80109952197209791F7DF913C
:10087000CF911F910F91FF90EF9008952F923F928B
:100880004F925F926F927F928F929F92AF92BF92A0
:10089000CF92DF92EF92FF920F931F93DF93CF934C
:1008A000CDB7DEB7A0970FB6F894DEBF0FBECDBFB1
:1008B0001C016A017B01411551056105710549F46F
:1008C000DC01ED91FC910190F081E02D60E3099550
:1008D00054C0882499245401422E55246624772438
:1008E00001E010E00C0F1D1F080D191DC701B60116
:1008F000A30192010E944405F80160830894811CC1
:10090000911CA11CB11CC701B601A30192010E9458
:100910004405C901DA016C017D01C114D104E1046F
:10092000F104F1F681E0E82EF12CEC0EFD1EE80C4E
:10093000F91C3E010894611C711CD501C40101978A
:10094000A109B1096C01C818D90814C0F601EE0D4F
:10095000FF1D60816A3010F4605D01C0695CD101E7
:10096000ED91FC910190F081E02DC1010995089471
:10097000E108F1086E147F0449F7A0960FB6F894C9
:10098000DEBF0FBECDBFCF91DF911F910F91FF90C2
:10099000EF90DF90CF90BF90AF909F908F907F901F
:1009A0006F905F904F903F902F900895EF92FF923D
:1009B0000F931F93CF93DF93EC017A018B0177FFA5
:1009C0000FC0E881F9810190F081E02D6DE2099579
:1009D00010950095F094E094E11CF11C011D111D8F
:1009E000CE01B801A7012AE00E943E04DF91CF9119
:1009F0001F910F91FF90EF900895DC0121153105B3
:100A000041F4ED91FC910190F081E02D642F099566
:100A100008952A30310519F40E94D60408950E94E1
:100A20003E040895629FD001739FF001829FE00D04
:100A3000F11D649FE00DF11D929FF00D839FF00D5D
:100A4000749FF00D659FF00D9927729FB00DE11D09
:100A5000F91F639FB00DE11DF91FBD01CF011124E6
:100A6000089597FB092E07260AD077FD04D049D0B8
:100A700006D000201AF4709561957F4F0895F6F71F
:100A8000909581959F4F0895A1E21A2EAA1BBB1B3A
:100A9000FD010DC0AA1FBB1FEE1FFF1FA217B3074A
:100AA000E407F50720F0A21BB30BE40BF50B661F60
:100AB000771F881F991F1A9469F760957095809524
:100AC00090959B01AC01BD01CF01089597FB092EC4
:100AD00005260ED057FD04D0D7DF0AD0001C38F40D
:100AE00050954095309521953F4F4F4F5F4F08955A
:100AF000F6F790958095709561957F4F8F4F9F4F3A
:100B00000895AA1BBB1B51E107C0AA1FBB1FA61754
:100B1000B70710F0A61BB70B881F991F5A95A9F7A6
:100B200080959095BC01CD010895EE0FFF1F0590B3
:0A0B3000F491E02D0994F894FFCF32
:0C0B3A000D0000000000BA0307041F04B7
:00000001FF
