:100000000C9462000C948A000C948A000C948A0070
:100010000C948A000C948A000C948A000C948A0038
:100020000C948A000C948A000C948A000C948A0028
:100030000C948A000C948A000C948A000C948A0018
:100040000C9435010C948A000C947F020C948A0065
:100050000C948A000C948A000C948A000C948A00F8
:100060000C948A000C948A000000000024002700F1
:100070002A0000000000250028002B0000000000DE
:1000800023002600290004040404040404040202DA
:100090000202020203030303030301020408102007
:1000A0004080010204081020010204081020000012
:1000B0000007000201000003040600000000000029
:1000C0000000C80311241FBECFEFD4E0DEBFCDBFB8
:1000D00011E0A0E0B1E0E0E3FBE002C005900D928A
:1000E000AC30B107D9F711E0ACE0B1E001C01D922E
:1000F000A93BB107E1F710E0C4ECD0E004C02297BF
:10010000FE010E949205C23CD107C9F70E94A200DD
:100110000C9496050C94000085E060E00E94C301F9
:100120008091000161E00E94C30184EA91E040E80F
:1001300055E260E070E00E94BC0283E090E00E9423
:10014000CB0008950E9489010E948C0080910001DB
:1001500061E00E94E30184E00E94300280930C0180
:10016000882319F481E090E002C080E090E00E94D2
:1001700008010E940F01AC0190930E0180930D01C4
:10018000662757FD6095762F84EA91E02AE030E0FB
:100190000E94F804DBCF9093B8018093B7011092CE
:1001A000100110920F011092140110921301089582
:1001B0009C01009759F46115710541F04F5F5F4F45
:1001C000CB010196BA010E942C059C01C90108953A
:1001D00060911301709114014091B7015091B801E1
:1001E00080911101909112010E94D8009093140106
:1001F000809313011092100110920F011816190626
:1002000034F481E090E09093100180930F01089501
:1002100090931201809311010E94E800089580914B
:100220000F0190911001892B39F081E090E09093BB
:1002300016018093150113C080911501909116014C
:10024000019749F482E090E09093160180931501A4
:1002500022E030E008C010921601109215012091A2
:10026000150130911601C90108951F920F920FB622
:100270000F9211242F933F934F935F936F937F932C
:100280008F939F93AF93BF9320911B0130911C01DB
:1002900040911D0150911E0170911F01DA01C901A9
:1002A0000296A11DB11D672F665D6D3730F06D5749
:1002B000DA01C9010396A11DB11D60931F0180934E
:1002C0001B0190931C01A0931D01B0931E0180910E
:1002D000170190911801A0911901B0911A0101968E
:1002E000A11DB11D8093170190931801A0931901CE
:1002F000B0931A01BF91AF919F918F917F916F91B0
:100300005F914F913F912F910F900FBE0F901F90D3
:100310001895789484B5826084BD84B5816084BD6D
:1003200085B5826085BD85B5816085BDEEE6F0E06E
:10033000808181608083E1E8F0E080818260808359
:10034000808181608083E0E8F0E08081816080834B
:10035000E1EBF0E0808184608083E0EBF0E080817D
:1003600081608083EAE7F0E080818460808380811F
:1003700082608083808181608083808180688083C7
:100380001092C1000895282F30E0C90186569F4F72
:10039000FC0194912A573F4FF9018491882391F0F1
:1003A000E82FF0E0EE0FFF1FE859FF4FA591B49141
:1003B000662329F48C91909589238C9308958C91D0
:1003C000892B8C930895482F50E0CA0182559F4F86
:1003D000FC012491CA0186569F4FFC0194914A5713
:1003E0005F4FFA0134913323D1F1222331F12330CD
:1003F00021F4809180008F7705C0243031F4809102
:1004000080008F7D8093800018C0213019F484B55E
:100410008F7704C0223021F484B58F7D84BD0DC058
:10042000263021F48091B0008F7705C0273029F461
:100430008091B0008F7D8093B000E32FF0E0EE0F4D
:10044000FF1FEE58FF4FA591B491662329F48C91BC
:10045000909589238C9308958C91892B8C93089582
:10046000682F70E0CB0182559F4FFC012491CB0196
:1004700086569F4FFC0144916A577F4FFB01949130
:10048000992319F420E030E038C0222331F12330E1
:1004900021F4809180008F7705C0243031F4809161
:1004A00080008F7D8093800018C0213019F484B5BE
:1004B0008F7704C0223021F484B58F7D84BD0DC0B8
:1004C000263021F48091B0008F7705C0273029F4C1
:1004D0008091B0008F7D8093B000892F90E0880FCD
:1004E000991F84589F4FFC01A591B4918C9120E0F5
:1004F00030E0842311F021E030E0C90108951F921B
:100500000F920FB60F9211242F933F934F935F9347
:100510006F937F938F939F93AF93BF93EF93FF93CB
:100520004091C600E091A001F091A101CF01019698
:1005300060E870E00E942C059C018091A2019091DE
:10054000A3012817390739F0E05EFE4F408330934E
:10055000A1012093A001FF91EF91BF91AF919F91D5
:100560008F917F916F915F914F913F912F910F905C
:100570000FBE0F901F9018955F926F927F928F928F
:100580009F92AF92BF92CF92DF92EF92FF920F9322
:100590001F93CF93DF93EC013A014B01413088E088
:1005A000580787E0680780E078070CF07FC060E0BC
:1005B00070E18EE090E0A40193010E94610521505A
:1005C000304040405040CA01B90122E030E040E0F4
:1005D00050E00E94610559016A01A601950120952C
:1005E00030954095509594E0220F331F441F551FBE
:1005F0009A95D1F760E070E880E790E00E9461058D
:10060000CA01B9012FEF30E040E050E00E940D0533
:10061000A40193010E946105C90181509F4F1816E2
:1006200019061CF4522E5A9403C055245394521A9E
:1006300060E070E28CE190E0A40193010E9461050A
:100640002150304040405040CA01B90122E030E022
:1006500040E050E00E94610520953095409550950E
:1006600083E0220F331F441F551F8A95D1F760E0A6
:1006700070E880E790E00E946105CA01B9012FEFA0
:1006800030E040E050E00E940D05A40193010E947B
:100690006105C90181509F4F181619061CF4822F5D
:1006A000815002C081E0821B851500F5E885F9853F
:1006B00081E090E00A8802C0880F991F0A94E2F74F
:1006C000808360E070E28CE190E0A40193010E94DD
:1006D00061052150304040405040CA01B90122E03C
:1006E00030E040E050E00E94610504C0E885F985F3
:1006F00010829501EC81FD813083EE81FF812083A2
:10070000EA85FB85208141E050E0CA010E8402C0E9
:10071000880F991F0A94E2F7282B2083EA85FB852E
:100720002081CA010F8402C0880F991F0A94E2F742
:10073000282B2083EA85FB858081088802C0440F2E
:10074000551F0A94E2F7842B8083DF91CF911F918C
:100750000F91FF90EF90DF90CF90BF90AF909F9060
:100760008F907F906F905F900895FC01A085B18578
:1007700021898C9190E0022E02C0959587950A946C
:10078000E2F780FFF6CF0484F585E02D60830895BD
:1007900086E091E09093A5018093A40180E291E02E
:1007A0009093A7018093A60185EC90E09093A90116
:1007B0008093A80184EC90E09093AB018093AA0110
:1007C00080EC90E09093AD018093AC0181EC90E0DF
:1007D0009093AF018093AE0186EC90E09093B101CD
:1007E0008093B00184E08093B20183E08093B301F1
:1007F00087E08093B40185E08093B50181E0809328
:10080000B60108950F931F93CF93DF938C01EB01F3
:1008100009C02196D801ED91FC910190F081E02D65
:10082000C801099568816623A1F7DF91CF911F91D7
:100830000F910895EF92FF920F931F93CF93DF9341
:100840008C017B01EA010CC0D7016D917D01D801BB
:10085000ED91FC910190F081E02DC801099521975F
:10086000209791F7DF91CF911F910F91FF90EF901B
:1008700008952F923F924F925F926F927F928F9244
:100880009F92AF92BF92CF92DF92EF92FF920F931F
:100890001F93DF93CF93CDB7DEB7A0970FB6F89431
:1008A000DEBF0FBECDBF1C016A017B0141155105A2
:1008B0006105710549F4DC01ED91FC910190F08135
:1008C000E02D60E3099554C0882499245401422EF8
:1008D00055246624772401E010E00C0F1D1F080D3D
:1008E000191DC701B601A30192010E943F05F8013D
:1008F00060830894811C911CA11CB11CC701B60126
:10090000A30192010E943F05C901DA016C017D013A
:10091000C114D104E104F104F1F681E0E82EF12CD8
:10092000EC0EFD1EE80CF91C3E010894611C711CC4
:10093000D501C4010197A109B1096C01C818D908F2
:1009400014C0F601EE0DFF1D60816A3010F4605D89
:1009500001C0695CD101ED91FC910190F081E02D25
:10096000C10109950894E108F1086E147F0449F764
:10097000A0960FB6F894DEBF0FBECDBFCF91DF912A
:100980001F910F91FF90EF90DF90CF90BF90AF90AD
:100990009F908F907F906F905F904F903F902F909F
:1009A0000895EF92FF920F931F93CF93DF93EC0183
:1009B0007A018B0177FF0FC0E881F9810190F08106
:1009C000E02D6DE2099510950095F094E094E11CFE
:1009D000F11C011D111DCE01B801A7012AE00E94E2
:1009E0003904DF91CF911F910F91FF90EF900895FF
:1009F000DC012115310541F4ED91FC910190F0816C
:100A0000E02D642F099508952A30310519F40E94CC
:100A1000D10408950E9439040895629FD001739F04
:100A2000F001829FE00DF11D649FE00DF11D929F8A
:100A3000F00D839FF00D749FF00D659FF00D9927C9
:100A4000729FB00DE11DF91F639FB00DE11DF91FED
:100A5000BD01CF011124089597FB092E07260AD066
:100A600077FD04D049D006D000201AF47095619526
:100A70007F4F0895F6F7909581959F4F0895A1E2D5
:100A80001A2EAA1BBB1BFD010DC0AA1FBB1FEE1F08
:100A9000FF1FA217B307E407F50720F0A21BB30B53
:100AA000E40BF50B661F771F881F991F1A9469F7CF
:100AB00060957095809590959B01AC01BD01CF012B
:100AC000089597FB092E05260ED057FD04D0D7DFD9
:100AD0000AD0001C38F450954095309521953F4F31
:100AE0004F4F5F4F0895F6F79095809570956195FB
:100AF0007F4F8F4F9F4F0895AA1BBB1B51E107C02B
:100B0000AA1FBB1FA617B70710F0A61BB70B881F9D
:100B1000991F5A95A9F780959095BC01CD0108952C
:100B2000EE0FFF1F0590F491E02D0994F894FFCF8C
:0C0B30000D0000000000B50302041A04D0
:00000001FF
